:060000000A128A11FC2F18
:100E7400043071020030031970020318422F432F0B
:100E84005A2F7018462F4A2F8312031317164D2F0B
:100E940083120313171297127108F3007008F200FB
:100EA4000310F30CF20C0310F30CF20C720895000F
:100EB40008001F30831603138600831203131715CB
:100EC4009715831603130711831203131210921438
:100ED400FA30831603139200831203131215831638
:100EE4000313081088108312031308108814831244
:100EF4000313061C7E2F7F2F902F013088060230AB
:100F040088060330F6008A30F5005530F400F40BFF
:100F1400892FF50B892FF60B892F902F831203133A
:100F2400861C952F962FA72F0030F000F1000A128F
:100F34008A113A270A128A118230F500DD30F40052
:100F4400F40BA22FF50BA22FA72F83120313061D58
:100F5400AC2FAD2FBF2FF430F0000130F1000A1296
:100F64008A113A270A128A118230F500DD30F40022
:100F7400F40BBA2FF50BBA2FBF2F83120313861D60
:100F8400C42FC52FD72FEE30F0000230F1000A1223
:100F94008A113A270A128A118230F500DD30F400F2
:100FA400F40BD22FF50BD22FD72F83120313061E67
:100FB400DC2FDD2FEF2FE830F0000330F1000A12B0
:100FC4008A113A270A128A118230F500DD30F400C2
:100FD400F40BEA2FF50BEA2FEF2F0D30F500FB3061
:100FE400F400F40BF32FF50BF32FF82F792F0A12DB
:0C0FF4008A11002883010A128A115B2F69
:02400E00713F00
:00000001FF
