:060000000A128A11FC2F18
:100E6200043071020030031970020318392F3A2F2F
:100E7200512F70183D2F412F831203131716442F41
:100E820083120313171297127108F3007008F2000D
:100E92000310F30CF20C0310F30CF20C7208950021
:100EA20008001F30831603138600831203131715DD
:100EB200971583160313071183120313121492104A
:100EC2007C308316031392008312031312158316C8
:100ED2000313081088108312031308108814831256
:100EE2000313061C752F762F902F0818792F7A2F4F
:100EF2007F2F0230880601308806832F0130880652
:100F0200023088060330F6008A30F5005530F400CE
:100F1200F40B892FF50B892FF60B892F902F831253
:100F22000313861C952F962FA72F0030F000F10097
:100F32000A128A1131270A128A118230F500DD3035
:100F4200F400F40BA22FF50BA22FA72F8312031389
:100F5200061DAC2FAD2FBF2FFA30F0000030F1008C
:100F62000A128A1131270A128A118230F500DD3005
:100F7200F400F40BBA2FF50BBA2FBF2F8312031311
:100F8200861DC42FC52FD72F7730F0000130F10016
:100F92000A128A1131270A128A118230F500DD30D5
:100FA200F400F40BD22FF50BD22FD72F8312031399
:100FB200061EDC2FDD2FEF2FF430F0000130F100A0
:100FC2000A128A1131270A128A118230F500DD30A5
:100FD200F400F40BEA2FF50BEA2FEF2F0D30F5009A
:100FE200FB30F400F40BF32FF50BF32FF82F702FD7
:0E0FF2000A128A11002883010A128A11522F56
:02400E00713F00
:00000001FF
